{
    "_format": "hh-sol-artifact-1",
    "contractName": "COYToken",
    "sourceName": "contracts/COYToken.sol",
    "abi": [
        {
            "inputs": [],
            "stateMutability": "nonpayable",
            "type": "constructor"
        },
        {
            "anonymous": false,
            "inputs": [
                {
                    "indexed": true,
                    "internalType": "address",
                    "name": "owner",
                    "type": "address"
                },
                {
                    "indexed": true,
                    "internalType": "address",
                    "name": "spender",
                    "type": "address"
                },
                {
                    "indexed": false,
                    "internalType": "uint256",
                    "name": "value",
                    "type": "uint256"
                }
            ],
            "name": "Approval",
            "type": "event"
        },
        {
            "anonymous": false,
            "inputs": [
                {
                    "indexed": true,
                    "internalType": "bytes32",
                    "name": "role",
                    "type": "bytes32"
                },
                {
                    "indexed": true,
                    "internalType": "bytes32",
                    "name": "previousAdminRole",
                    "type": "bytes32"
                },
                {
                    "indexed": true,
                    "internalType": "bytes32",
                    "name": "newAdminRole",
                    "type": "bytes32"
                }
            ],
            "name": "RoleAdminChanged",
            "type": "event"
        },
        {
            "anonymous": false,
            "inputs": [
                {
                    "indexed": true,
                    "internalType": "bytes32",
                    "name": "role",
                    "type": "bytes32"
                },
                {
                    "indexed": true,
                    "internalType": "address",
                    "name": "account",
                    "type": "address"
                },
                {
                    "indexed": true,
                    "internalType": "address",
                    "name": "sender",
                    "type": "address"
                }
            ],
            "name": "RoleGranted",
            "type": "event"
        },
        {
            "anonymous": false,
            "inputs": [
                {
                    "indexed": true,
                    "internalType": "bytes32",
                    "name": "role",
                    "type": "bytes32"
                },
                {
                    "indexed": true,
                    "internalType": "address",
                    "name": "account",
                    "type": "address"
                },
                {
                    "indexed": true,
                    "internalType": "address",
                    "name": "sender",
                    "type": "address"
                }
            ],
            "name": "RoleRevoked",
            "type": "event"
        },
        {
            "anonymous": false,
            "inputs": [
                {
                    "indexed": true,
                    "internalType": "address",
                    "name": "from",
                    "type": "address"
                },
                {
                    "indexed": true,
                    "internalType": "address",
                    "name": "to",
                    "type": "address"
                },
                {
                    "indexed": false,
                    "internalType": "uint256",
                    "name": "value",
                    "type": "uint256"
                }
            ],
            "name": "Transfer",
            "type": "event"
        },
        {
            "inputs": [],
            "name": "DEFAULT_ADMIN_ROLE",
            "outputs": [
                {
                    "internalType": "bytes32",
                    "name": "",
                    "type": "bytes32"
                }
            ],
            "stateMutability": "view",
            "type": "function"
        },
        {
            "inputs": [],
            "name": "WHITELISTED_ROLE",
            "outputs": [
                {
                    "internalType": "bytes32",
                    "name": "",
                    "type": "bytes32"
                }
            ],
            "stateMutability": "view",
            "type": "function"
        },
        {
            "inputs": [
                {
                    "internalType": "address",
                    "name": "account",
                    "type": "address"
                }
            ],
            "name": "addWhitelisted",
            "outputs": [],
            "stateMutability": "nonpayable",
            "type": "function"
        },
        {
            "inputs": [
                {
                    "internalType": "address",
                    "name": "owner",
                    "type": "address"
                },
                {
                    "internalType": "address",
                    "name": "spender",
                    "type": "address"
                }
            ],
            "name": "allowance",
            "outputs": [
                {
                    "internalType": "uint256",
                    "name": "",
                    "type": "uint256"
                }
            ],
            "stateMutability": "view",
            "type": "function"
        },
        {
            "inputs": [
                {
                    "internalType": "address",
                    "name": "spender",
                    "type": "address"
                },
                {
                    "internalType": "uint256",
                    "name": "amount",
                    "type": "uint256"
                }
            ],
            "name": "approve",
            "outputs": [
                {
                    "internalType": "bool",
                    "name": "",
                    "type": "bool"
                }
            ],
            "stateMutability": "nonpayable",
            "type": "function"
        },
        {
            "inputs": [
                {
                    "internalType": "address",
                    "name": "account",
                    "type": "address"
                }
            ],
            "name": "balanceOf",
            "outputs": [
                {
                    "internalType": "uint256",
                    "name": "",
                    "type": "uint256"
                }
            ],
            "stateMutability": "view",
            "type": "function"
        },
        {
            "inputs": [],
            "name": "decimals",
            "outputs": [
                {
                    "internalType": "uint8",
                    "name": "",
                    "type": "uint8"
                }
            ],
            "stateMutability": "view",
            "type": "function"
        },
        {
            "inputs": [
                {
                    "internalType": "address",
                    "name": "spender",
                    "type": "address"
                },
                {
                    "internalType": "uint256",
                    "name": "subtractedValue",
                    "type": "uint256"
                }
            ],
            "name": "decreaseAllowance",
            "outputs": [
                {
                    "internalType": "bool",
                    "name": "",
                    "type": "bool"
                }
            ],
            "stateMutability": "nonpayable",
            "type": "function"
        },
        {
            "inputs": [
                {
                    "internalType": "bytes32",
                    "name": "role",
                    "type": "bytes32"
                }
            ],
            "name": "getRoleAdmin",
            "outputs": [
                {
                    "internalType": "bytes32",
                    "name": "",
                    "type": "bytes32"
                }
            ],
            "stateMutability": "view",
            "type": "function"
        },
        {
            "inputs": [
                {
                    "internalType": "bytes32",
                    "name": "role",
                    "type": "bytes32"
                },
                {
                    "internalType": "address",
                    "name": "account",
                    "type": "address"
                }
            ],
            "name": "grantRole",
            "outputs": [],
            "stateMutability": "nonpayable",
            "type": "function"
        },
        {
            "inputs": [
                {
                    "internalType": "bytes32",
                    "name": "role",
                    "type": "bytes32"
                },
                {
                    "internalType": "address",
                    "name": "account",
                    "type": "address"
                }
            ],
            "name": "hasRole",
            "outputs": [
                {
                    "internalType": "bool",
                    "name": "",
                    "type": "bool"
                }
            ],
            "stateMutability": "view",
            "type": "function"
        },
        {
            "inputs": [
                {
                    "internalType": "address",
                    "name": "spender",
                    "type": "address"
                },
                {
                    "internalType": "uint256",
                    "name": "addedValue",
                    "type": "uint256"
                }
            ],
            "name": "increaseAllowance",
            "outputs": [
                {
                    "internalType": "bool",
                    "name": "",
                    "type": "bool"
                }
            ],
            "stateMutability": "nonpayable",
            "type": "function"
        },
        {
            "inputs": [
                {
                    "internalType": "address",
                    "name": "account",
                    "type": "address"
                },
                {
                    "internalType": "uint256",
                    "name": "amount",
                    "type": "uint256"
                }
            ],
            "name": "mint",
            "outputs": [],
            "stateMutability": "nonpayable",
            "type": "function"
        },
        {
            "inputs": [],
            "name": "name",
            "outputs": [
                {
                    "internalType": "string",
                    "name": "",
                    "type": "string"
                }
            ],
            "stateMutability": "view",
            "type": "function"
        },
        {
            "inputs": [
                {
                    "internalType": "bytes32",
                    "name": "role",
                    "type": "bytes32"
                },
                {
                    "internalType": "address",
                    "name": "account",
                    "type": "address"
                }
            ],
            "name": "renounceRole",
            "outputs": [],
            "stateMutability": "nonpayable",
            "type": "function"
        },
        {
            "inputs": [
                {
                    "internalType": "bytes32",
                    "name": "role",
                    "type": "bytes32"
                },
                {
                    "internalType": "address",
                    "name": "account",
                    "type": "address"
                }
            ],
            "name": "revokeRole",
            "outputs": [],
            "stateMutability": "nonpayable",
            "type": "function"
        },
        {
            "inputs": [
                {
                    "internalType": "bytes4",
                    "name": "interfaceId",
                    "type": "bytes4"
                }
            ],
            "name": "supportsInterface",
            "outputs": [
                {
                    "internalType": "bool",
                    "name": "",
                    "type": "bool"
                }
            ],
            "stateMutability": "view",
            "type": "function"
        },
        {
            "inputs": [],
            "name": "symbol",
            "outputs": [
                {
                    "internalType": "string",
                    "name": "",
                    "type": "string"
                }
            ],
            "stateMutability": "view",
            "type": "function"
        },
        {
            "inputs": [],
            "name": "totalSupply",
            "outputs": [
                {
                    "internalType": "uint256",
                    "name": "",
                    "type": "uint256"
                }
            ],
            "stateMutability": "view",
            "type": "function"
        },
        {
            "inputs": [
                {
                    "internalType": "address",
                    "name": "recipient",
                    "type": "address"
                },
                {
                    "internalType": "uint256",
                    "name": "amount",
                    "type": "uint256"
                }
            ],
            "name": "transfer",
            "outputs": [
                {
                    "internalType": "bool",
                    "name": "",
                    "type": "bool"
                }
            ],
            "stateMutability": "nonpayable",
            "type": "function"
        },
        {
            "inputs": [
                {
                    "internalType": "address",
                    "name": "from",
                    "type": "address"
                },
                {
                    "internalType": "address",
                    "name": "to",
                    "type": "address"
                },
                {
                    "internalType": "uint256",
                    "name": "amount",
                    "type": "uint256"
                }
            ],
            "name": "transferFrom",
            "outputs": [
                {
                    "internalType": "bool",
                    "name": "",
                    "type": "bool"
                }
            ],
            "stateMutability": "nonpayable",
            "type": "function"
        }
    ],
    "bytecode": "0x60806040523480156200001157600080fd5b506040518060400160405280600881526020017f434f59546f6b656e0000000000000000000000000000000000000000000000008152506040518060400160405280600381526020017f434f59000000000000000000000000000000000000000000000000000000000081525081600390816200008f9190620006a5565b508060049081620000a19190620006a5565b505050620000b96000801b336200013060201b60201c565b620000eb7f8429d542926e6695b59ac6fbdcd9b37e8b1aeb757afab06ab60b1bb5878c3b49336200013060201b60201c565b6200012a33620001006200014660201b60201c565b600a6200010e91906200091c565b620f42406200011e91906200096d565b6200014f60201b60201c565b62000aa4565b620001428282620002bc60201b60201c565b5050565b60006012905090565b600073ffffffffffffffffffffffffffffffffffffffff168273ffffffffffffffffffffffffffffffffffffffff1603620001c1576040517f08c379a0000000000000000000000000000000000000000000000000000000008152600401620001b89062000a19565b60405180910390fd5b620001d560008383620003ae60201b60201c565b8060026000828254620001e9919062000a3b565b92505081905550806000808473ffffffffffffffffffffffffffffffffffffffff1673ffffffffffffffffffffffffffffffffffffffff168152602001908152602001600020600082825401925050819055508173ffffffffffffffffffffffffffffffffffffffff16600073ffffffffffffffffffffffffffffffffffffffff167fddf252ad1be2c89b69c2b068fc378daa952ba7f163c4a11628f55a4df523b3ef836040516200029c919062000a87565b60405180910390a3620002b860008383620003b360201b60201c565b5050565b620002ce8282620003b860201b60201c565b620003aa5760016005600084815260200190815260200160002060000160008373ffffffffffffffffffffffffffffffffffffffff1673ffffffffffffffffffffffffffffffffffffffff16815260200190815260200160002060006101000a81548160ff0219169083151502179055506200034f6200042360201b60201c565b73ffffffffffffffffffffffffffffffffffffffff168173ffffffffffffffffffffffffffffffffffffffff16837f2f8788117e7eff1d82e926ec794901d17c78024a50270940304540a733656f0d60405160405180910390a45b5050565b505050565b505050565b60006005600084815260200190815260200160002060000160008373ffffffffffffffffffffffffffffffffffffffff1673ffffffffffffffffffffffffffffffffffffffff16815260200190815260200160002060009054906101000a900460ff16905092915050565b600033905090565b600081519050919050565b7f4e487b7100000000000000000000000000000000000000000000000000000000600052604160045260246000fd5b7f4e487b7100000000000000000000000000000000000000000000000000000000600052602260045260246000fd5b60006002820490506001821680620004ad57607f821691505b602082108103620004c357620004c262000465565b5b50919050565b60008190508160005260206000209050919050565b60006020601f8301049050919050565b600082821b905092915050565b6000600883026200052d7fffffffffffffffffffffffffffffffffffffffffffffffffffffffffffffffff82620004ee565b620005398683620004ee565b95508019841693508086168417925050509392505050565b6000819050919050565b6000819050919050565b600062000586620005806200057a8462000551565b6200055b565b62000551565b9050919050565b6000819050919050565b620005a28362000565565b620005ba620005b1826200058d565b848454620004fb565b825550505050565b600090565b620005d1620005c2565b620005de81848462000597565b505050565b5b818110156200060657620005fa600082620005c7565b600181019050620005e4565b5050565b601f82111562000655576200061f81620004c9565b6200062a84620004de565b810160208510156200063a578190505b620006526200064985620004de565b830182620005e3565b50505b505050565b600082821c905092915050565b60006200067a600019846008026200065a565b1980831691505092915050565b600062000695838362000667565b9150826002028217905092915050565b620006b0826200042b565b67ffffffffffffffff811115620006cc57620006cb62000436565b5b620006d8825462000494565b620006e58282856200060a565b600060209050601f8311600181146200071d576000841562000708578287015190505b62000714858262000687565b86555062000784565b601f1984166200072d86620004c9565b60005b82811015620007575784890151825560018201915060208501945060208101905062000730565b8683101562000777578489015162000773601f89168262000667565b8355505b6001600288020188555050505b505050505050565b7f4e487b7100000000000000000000000000000000000000000000000000000000600052601160045260246000fd5b60008160011c9050919050565b6000808291508390505b60018511156200081a57808604811115620007f257620007f16200078c565b5b6001851615620008025780820291505b80810290506200081285620007bb565b9450620007d2565b94509492505050565b60008262000835576001905062000908565b8162000845576000905062000908565b81600181146200085e576002811462000869576200089f565b600191505062000908565b60ff8411156200087e576200087d6200078c565b5b8360020a9150848211156200089857620008976200078c565b5b5062000908565b5060208310610133831016604e8410600b8410161715620008d95782820a905083811115620008d357620008d26200078c565b5b62000908565b620008e88484846001620007c8565b925090508184048111156200090257620009016200078c565b5b81810290505b9392505050565b600060ff82169050919050565b6000620009298262000551565b915062000936836200090f565b9250620009657fffffffffffffffffffffffffffffffffffffffffffffffffffffffffffffffff848462000823565b905092915050565b60006200097a8262000551565b9150620009878362000551565b9250828202620009978162000551565b91508282048414831517620009b157620009b06200078c565b5b5092915050565b600082825260208201905092915050565b7f45524332303a206d696e7420746f20746865207a65726f206164647265737300600082015250565b600062000a01601f83620009b8565b915062000a0e82620009c9565b602082019050919050565b6000602082019050818103600083015262000a3481620009f2565b9050919050565b600062000a488262000551565b915062000a558362000551565b925082820190508082111562000a705762000a6f6200078c565b5b92915050565b62000a818162000551565b82525050565b600060208201905062000a9e600083018462000a76565b92915050565b6122a78062000ab46000396000f3fe608060405234801561001057600080fd5b50600436106101375760003560e01c806339509351116100b857806395d89b411161007c57806395d89b4114610374578063a217fddf14610392578063a457c2d7146103b0578063a9059cbb146103e0578063d547741f14610410578063dd62ed3e1461042c57610137565b806339509351146102aa57806340c10f19146102da57806370a08231146102f65780637a3226ec1461032657806391d148541461034457610137565b806323b872dd116100ff57806323b872dd146101f4578063248a9ca3146102245780632f2ff15d14610254578063313ce5671461027057806336568abe1461028e57610137565b806301ffc9a71461013c57806306fdde031461016c578063095ea7b31461018a57806310154bad146101ba57806318160ddd146101d6575b600080fd5b6101566004803603810190610151919061162c565b61045c565b6040516101639190611674565b60405180910390f35b6101746104d6565b604051610181919061171f565b60405180910390f35b6101a4600480360381019061019f91906117d5565b610568565b6040516101b19190611674565b60405180910390f35b6101d460048036038101906101cf9190611815565b61058b565b005b6101de6105c6565b6040516101eb9190611851565b60405180910390f35b61020e6004803603810190610209919061186c565b6105d0565b60405161021b9190611674565b60405180910390f35b61023e600480360381019061023991906118f5565b6105ff565b60405161024b9190611931565b60405180910390f35b61026e6004803603810190610269919061194c565b61061f565b005b610278610640565b60405161028591906119a8565b60405180910390f35b6102a860048036038101906102a3919061194c565b610649565b005b6102c460048036038101906102bf91906117d5565b6106cc565b6040516102d19190611674565b60405180910390f35b6102f460048036038101906102ef91906117d5565b610703565b005b610310600480360381019061030b9190611815565b61073c565b60405161031d9190611851565b60405180910390f35b61032e610784565b60405161033b9190611931565b60405180910390f35b61035e6004803603810190610359919061194c565b6107a8565b60405161036b9190611674565b60405180910390f35b61037c610813565b604051610389919061171f565b60405180910390f35b61039a6108a5565b6040516103a79190611931565b60405180910390f35b6103ca60048036038101906103c591906117d5565b6108ac565b6040516103d79190611674565b60405180910390f35b6103fa60048036038101906103f591906117d5565b610923565b6040516104079190611674565b60405180910390f35b61042a6004803603810190610425919061194c565b6109a2565b005b610446600480360381019061044191906119c3565b6109c3565b6040516104539190611851565b60405180910390f35b60007f7965db0b000000000000000000000000000000000000000000000000000000007bffffffffffffffffffffffffffffffffffffffffffffffffffffffff1916827bffffffffffffffffffffffffffffffffffffffffffffffffffffffff191614806104cf57506104ce82610a4a565b5b9050919050565b6060600380546104e590611a32565b80601f016020809104026020016040519081016040528092919081815260200182805461051190611a32565b801561055e5780601f106105335761010080835404028352916020019161055e565b820191906000526020600020905b81548152906001019060200180831161054157829003601f168201915b5050505050905090565b600080610573610ab4565b9050610580818585610abc565b600191505092915050565b6000801b61059881610c85565b6105c27f8429d542926e6695b59ac6fbdcd9b37e8b1aeb757afab06ab60b1bb5878c3b498361061f565b5050565b6000600254905090565b6000806105db610ab4565b90506105e8858285610c99565b6105f3858585610d25565b60019150509392505050565b600060056000838152602001908152602001600020600101549050919050565b610628826105ff565b61063181610c85565b61063b8383610f9b565b505050565b60006012905090565b610651610ab4565b73ffffffffffffffffffffffffffffffffffffffff168173ffffffffffffffffffffffffffffffffffffffff16146106be576040517f08c379a00000000000000000000000000000000000000000000000000000000081526004016106b590611ad5565b60405180910390fd5b6106c8828261107c565b5050565b6000806106d7610ab4565b90506106f88185856106e985896109c3565b6106f39190611b24565b610abc565b600191505092915050565b7f8429d542926e6695b59ac6fbdcd9b37e8b1aeb757afab06ab60b1bb5878c3b4961072d81610c85565b610737838361115e565b505050565b60008060008373ffffffffffffffffffffffffffffffffffffffff1673ffffffffffffffffffffffffffffffffffffffff168152602001908152602001600020549050919050565b7f8429d542926e6695b59ac6fbdcd9b37e8b1aeb757afab06ab60b1bb5878c3b4981565b60006005600084815260200190815260200160002060000160008373ffffffffffffffffffffffffffffffffffffffff1673ffffffffffffffffffffffffffffffffffffffff16815260200190815260200160002060009054906101000a900460ff16905092915050565b60606004805461082290611a32565b80601f016020809104026020016040519081016040528092919081815260200182805461084e90611a32565b801561089b5780601f106108705761010080835404028352916020019161089b565b820191906000526020600020905b81548152906001019060200180831161087e57829003601f168201915b5050505050905090565b6000801b81565b6000806108b7610ab4565b905060006108c582866109c3565b90508381101561090a576040517f08c379a000000000000000000000000000000000000000000000000000000000815260040161090190611bca565b60405180910390fd5b6109178286868403610abc565b60019250505092915050565b6000336109507f8429d542926e6695b59ac6fbdcd9b37e8b1aeb757afab06ab60b1bb5878c3b49826107a8565b61098f576040517f08c379a000000000000000000000000000000000000000000000000000000000815260040161098690611c5c565b60405180910390fd5b61099984846112b4565b91505092915050565b6109ab826105ff565b6109b481610c85565b6109be838361107c565b505050565b6000600160008473ffffffffffffffffffffffffffffffffffffffff1673ffffffffffffffffffffffffffffffffffffffff16815260200190815260200160002060008373ffffffffffffffffffffffffffffffffffffffff1673ffffffffffffffffffffffffffffffffffffffff16815260200190815260200160002054905092915050565b60007f01ffc9a7000000000000000000000000000000000000000000000000000000007bffffffffffffffffffffffffffffffffffffffffffffffffffffffff1916827bffffffffffffffffffffffffffffffffffffffffffffffffffffffff1916149050919050565b600033905090565b600073ffffffffffffffffffffffffffffffffffffffff168373ffffffffffffffffffffffffffffffffffffffff1603610b2b576040517f08c379a0000000000000000000000000000000000000000000000000000000008152600401610b2290611cee565b60405180910390fd5b600073ffffffffffffffffffffffffffffffffffffffff168273ffffffffffffffffffffffffffffffffffffffff1603610b9a576040517f08c379a0000000000000000000000000000000000000000000000000000000008152600401610b9190611d80565b60405180910390fd5b80600160008573ffffffffffffffffffffffffffffffffffffffff1673ffffffffffffffffffffffffffffffffffffffff16815260200190815260200160002060008473ffffffffffffffffffffffffffffffffffffffff1673ffffffffffffffffffffffffffffffffffffffff168152602001908152602001600020819055508173ffffffffffffffffffffffffffffffffffffffff168373ffffffffffffffffffffffffffffffffffffffff167f8c5be1e5ebec7d5bd14f71427d1e84f3dd0314c0f7b2291e5b200ac8c7c3b92583604051610c789190611851565b60405180910390a3505050565b610c9681610c91610ab4565b6112d7565b50565b6000610ca584846109c3565b90507fffffffffffffffffffffffffffffffffffffffffffffffffffffffffffffffff8114610d1f5781811015610d11576040517f08c379a0000000000000000000000000000000000000000000000000000000008152600401610d0890611dec565b60405180910390fd5b610d1e8484848403610abc565b5b50505050565b600073ffffffffffffffffffffffffffffffffffffffff168373ffffffffffffffffffffffffffffffffffffffff1603610d94576040517f08c379a0000000000000000000000000000000000000000000000000000000008152600401610d8b90611e7e565b60405180910390fd5b600073ffffffffffffffffffffffffffffffffffffffff168273ffffffffffffffffffffffffffffffffffffffff1603610e03576040517f08c379a0000000000000000000000000000000000000000000000000000000008152600401610dfa90611f10565b60405180910390fd5b610e0e83838361135c565b60008060008573ffffffffffffffffffffffffffffffffffffffff1673ffffffffffffffffffffffffffffffffffffffff16815260200190815260200160002054905081811015610e94576040517f08c379a0000000000000000000000000000000000000000000000000000000008152600401610e8b90611fa2565b60405180910390fd5b8181036000808673ffffffffffffffffffffffffffffffffffffffff1673ffffffffffffffffffffffffffffffffffffffff16815260200190815260200160002081905550816000808573ffffffffffffffffffffffffffffffffffffffff1673ffffffffffffffffffffffffffffffffffffffff168152602001908152602001600020600082825401925050819055508273ffffffffffffffffffffffffffffffffffffffff168473ffffffffffffffffffffffffffffffffffffffff167fddf252ad1be2c89b69c2b068fc378daa952ba7f163c4a11628f55a4df523b3ef84604051610f829190611851565b60405180910390a3610f95848484611361565b50505050565b610fa582826107a8565b6110785760016005600084815260200190815260200160002060000160008373ffffffffffffffffffffffffffffffffffffffff1673ffffffffffffffffffffffffffffffffffffffff16815260200190815260200160002060006101000a81548160ff02191690831515021790555061101d610ab4565b73ffffffffffffffffffffffffffffffffffffffff168173ffffffffffffffffffffffffffffffffffffffff16837f2f8788117e7eff1d82e926ec794901d17c78024a50270940304540a733656f0d60405160405180910390a45b5050565b61108682826107a8565b1561115a5760006005600084815260200190815260200160002060000160008373ffffffffffffffffffffffffffffffffffffffff1673ffffffffffffffffffffffffffffffffffffffff16815260200190815260200160002060006101000a81548160ff0219169083151502179055506110ff610ab4565b73ffffffffffffffffffffffffffffffffffffffff168173ffffffffffffffffffffffffffffffffffffffff16837ff6391f5c32d9c69d2a47ea670b442974b53935d1edc7fd64eb21e047a839171b60405160405180910390a45b5050565b600073ffffffffffffffffffffffffffffffffffffffff168273ffffffffffffffffffffffffffffffffffffffff16036111cd576040517f08c379a00000000000000000000000000000000000000000000000000000000081526004016111c49061200e565b60405180910390fd5b6111d96000838361135c565b80600260008282546111eb9190611b24565b92505081905550806000808473ffffffffffffffffffffffffffffffffffffffff1673ffffffffffffffffffffffffffffffffffffffff168152602001908152602001600020600082825401925050819055508173ffffffffffffffffffffffffffffffffffffffff16600073ffffffffffffffffffffffffffffffffffffffff167fddf252ad1be2c89b69c2b068fc378daa952ba7f163c4a11628f55a4df523b3ef8360405161129c9190611851565b60405180910390a36112b060008383611361565b5050565b6000806112bf610ab4565b90506112cc818585610d25565b600191505092915050565b6112e182826107a8565b611358576112ee81611366565b6112fc8360001c6020611393565b60405160200161130d929190612102565b6040516020818303038152906040526040517f08c379a000000000000000000000000000000000000000000000000000000000815260040161134f919061171f565b60405180910390fd5b5050565b505050565b505050565b606061138c8273ffffffffffffffffffffffffffffffffffffffff16601460ff16611393565b9050919050565b6060600060028360026113a6919061213c565b6113b09190611b24565b67ffffffffffffffff8111156113c9576113c861217e565b5b6040519080825280601f01601f1916602001820160405280156113fb5781602001600182028036833780820191505090505b5090507f300000000000000000000000000000000000000000000000000000000000000081600081518110611433576114326121ad565b5b60200101907effffffffffffffffffffffffffffffffffffffffffffffffffffffffffffff1916908160001a9053507f780000000000000000000000000000000000000000000000000000000000000081600181518110611497576114966121ad565b5b60200101907effffffffffffffffffffffffffffffffffffffffffffffffffffffffffffff1916908160001a905350600060018460026114d7919061213c565b6114e19190611b24565b90505b6001811115611581577f3031323334353637383961626364656600000000000000000000000000000000600f861660108110611523576115226121ad565b5b1a60f81b82828151811061153a576115396121ad565b5b60200101907effffffffffffffffffffffffffffffffffffffffffffffffffffffffffffff1916908160001a905350600485901c94508061157a906121dc565b90506114e4565b50600084146115c5576040517f08c379a00000000000000000000000000000000000000000000000000000000081526004016115bc90612251565b60405180910390fd5b8091505092915050565b600080fd5b60007fffffffff0000000000000000000000000000000000000000000000000000000082169050919050565b611609816115d4565b811461161457600080fd5b50565b60008135905061162681611600565b92915050565b600060208284031215611642576116416115cf565b5b600061165084828501611617565b91505092915050565b60008115159050919050565b61166e81611659565b82525050565b60006020820190506116896000830184611665565b92915050565b600081519050919050565b600082825260208201905092915050565b60005b838110156116c95780820151818401526020810190506116ae565b60008484015250505050565b6000601f19601f8301169050919050565b60006116f18261168f565b6116fb818561169a565b935061170b8185602086016116ab565b611714816116d5565b840191505092915050565b6000602082019050818103600083015261173981846116e6565b905092915050565b600073ffffffffffffffffffffffffffffffffffffffff82169050919050565b600061176c82611741565b9050919050565b61177c81611761565b811461178757600080fd5b50565b60008135905061179981611773565b92915050565b6000819050919050565b6117b28161179f565b81146117bd57600080fd5b50565b6000813590506117cf816117a9565b92915050565b600080604083850312156117ec576117eb6115cf565b5b60006117fa8582860161178a565b925050602061180b858286016117c0565b9150509250929050565b60006020828403121561182b5761182a6115cf565b5b60006118398482850161178a565b91505092915050565b61184b8161179f565b82525050565b60006020820190506118666000830184611842565b92915050565b600080600060608486031215611885576118846115cf565b5b60006118938682870161178a565b93505060206118a48682870161178a565b92505060406118b5868287016117c0565b9150509250925092565b6000819050919050565b6118d2816118bf565b81146118dd57600080fd5b50565b6000813590506118ef816118c9565b92915050565b60006020828403121561190b5761190a6115cf565b5b6000611919848285016118e0565b91505092915050565b61192b816118bf565b82525050565b60006020820190506119466000830184611922565b92915050565b60008060408385031215611963576119626115cf565b5b6000611971858286016118e0565b92505060206119828582860161178a565b9150509250929050565b600060ff82169050919050565b6119a28161198c565b82525050565b60006020820190506119bd6000830184611999565b92915050565b600080604083850312156119da576119d96115cf565b5b60006119e88582860161178a565b92505060206119f98582860161178a565b9150509250929050565b7f4e487b7100000000000000000000000000000000000000000000000000000000600052602260045260246000fd5b60006002820490506001821680611a4a57607f821691505b602082108103611a5d57611a5c611a03565b5b50919050565b7f416363657373436f6e74726f6c3a2063616e206f6e6c792072656e6f756e636560008201527f20726f6c657320666f722073656c660000000000000000000000000000000000602082015250565b6000611abf602f8361169a565b9150611aca82611a63565b604082019050919050565b60006020820190508181036000830152611aee81611ab2565b9050919050565b7f4e487b7100000000000000000000000000000000000000000000000000000000600052601160045260246000fd5b6000611b2f8261179f565b9150611b3a8361179f565b9250828201905080821115611b5257611b51611af5565b5b92915050565b7f45524332303a2064656372656173656420616c6c6f77616e63652062656c6f7760008201527f207a65726f000000000000000000000000000000000000000000000000000000602082015250565b6000611bb460258361169a565b9150611bbf82611b58565b604082019050919050565b60006020820190508181036000830152611be381611ba7565b9050919050565b7f4d79546f6b656e3a2063616c6c6572206973206e6f742077686974656c69737460008201527f6564000000000000000000000000000000000000000000000000000000000000602082015250565b6000611c4660228361169a565b9150611c5182611bea565b604082019050919050565b60006020820190508181036000830152611c7581611c39565b9050919050565b7f45524332303a20617070726f76652066726f6d20746865207a65726f2061646460008201527f7265737300000000000000000000000000000000000000000000000000000000602082015250565b6000611cd860248361169a565b9150611ce382611c7c565b604082019050919050565b60006020820190508181036000830152611d0781611ccb565b9050919050565b7f45524332303a20617070726f766520746f20746865207a65726f20616464726560008201527f7373000000000000000000000000000000000000000000000000000000000000602082015250565b6000611d6a60228361169a565b9150611d7582611d0e565b604082019050919050565b60006020820190508181036000830152611d9981611d5d565b9050919050565b7f45524332303a20696e73756666696369656e7420616c6c6f77616e6365000000600082015250565b6000611dd6601d8361169a565b9150611de182611da0565b602082019050919050565b60006020820190508181036000830152611e0581611dc9565b9050919050565b7f45524332303a207472616e736665722066726f6d20746865207a65726f20616460008201527f6472657373000000000000000000000000000000000000000000000000000000602082015250565b6000611e6860258361169a565b9150611e7382611e0c565b604082019050919050565b60006020820190508181036000830152611e9781611e5b565b9050919050565b7f45524332303a207472616e7366657220746f20746865207a65726f206164647260008201527f6573730000000000000000000000000000000000000000000000000000000000602082015250565b6000611efa60238361169a565b9150611f0582611e9e565b604082019050919050565b60006020820190508181036000830152611f2981611eed565b9050919050565b7f45524332303a207472616e7366657220616d6f756e742065786365656473206260008201527f616c616e63650000000000000000000000000000000000000000000000000000602082015250565b6000611f8c60268361169a565b9150611f9782611f30565b604082019050919050565b60006020820190508181036000830152611fbb81611f7f565b9050919050565b7f45524332303a206d696e7420746f20746865207a65726f206164647265737300600082015250565b6000611ff8601f8361169a565b915061200382611fc2565b602082019050919050565b6000602082019050818103600083015261202781611feb565b9050919050565b600081905092915050565b7f416363657373436f6e74726f6c3a206163636f756e7420000000000000000000600082015250565b600061206f60178361202e565b915061207a82612039565b601782019050919050565b60006120908261168f565b61209a818561202e565b93506120aa8185602086016116ab565b80840191505092915050565b7f206973206d697373696e6720726f6c6520000000000000000000000000000000600082015250565b60006120ec60118361202e565b91506120f7826120b6565b601182019050919050565b600061210d82612062565b91506121198285612085565b9150612124826120df565b91506121308284612085565b91508190509392505050565b60006121478261179f565b91506121528361179f565b92508282026121608161179f565b9150828204841483151761217757612176611af5565b5b5092915050565b7f4e487b7100000000000000000000000000000000000000000000000000000000600052604160045260246000fd5b7f4e487b7100000000000000000000000000000000000000000000000000000000600052603260045260246000fd5b60006121e78261179f565b9150600082036121fa576121f9611af5565b5b600182039050919050565b7f537472696e67733a20686578206c656e67746820696e73756666696369656e74600082015250565b600061223b60208361169a565b915061224682612205565b602082019050919050565b6000602082019050818103600083015261226a8161222e565b905091905056fea26469706673582212205383622a33c9e8e730b58c0f4bbdd441f7749d0d9bd58d564a48e19abf3bf72164736f6c63430008110033",
    "linkReferences": {},
    "deployedLinkReferences": {}
}